:100000000C94DA000C9402010C9402010C9402018D
:100010000C9402010C9402010C9402010C94020154
:100020000C9402010C9402010C9402010C94020144
:100030000C9402010C9402010C9402010C94020134
:100040000C94FB040C9402010C946B050C94450574
:100050000C9402010C9402010C9402010C94020114
:100060000C949D050C94020100407A10F35A00A0F4
:10007000724E18090010A5D4E80000E87648170071
:1000800000E40B54020000CA9A3B000000E1F505B1
:10009000000080969800000040420F000000A086FB
:1000A00001000000102700000000E803000000002D
:1000B0006400000000000A000000000001000000D1
:1000C00000002C76D888DC674F0823DFC1DFAE59EB
:1000D000E1B1B796E5E3E453C63AE651997696E87E
:1000E000E6C28426EB898C9B62ED407C6FFCEFBC02
:1000F0009C9F40F2BAA56FA5F490055A2AF75C932D
:100100006B6CF9676DC11BFCE0E40D47FEF520E662
:10011000B500D0ED902E0300943577050080841E45
:10012000080000204E0A000000C80C333333330FA0
:10013000986E12831141EF8D2114893BE65516CF3D
:10014000FEE6DB18D1844B381BF77C1D901DA4BB49
:10015000E424203284725E228100C9F124ECA1E5FE
:100160003D2700000000240027002A0000000000B6
:10017000250028002B0004040404040404040202E3
:100180000202020203030303030301020408102016
:100190004080010204081020010204081020000021
:1001A0000008000201000003040700000000000036
:1001B0000000460711241FBECFEFD8E0DEBFCDBF41
:1001C00022E0A2E5B1E001C01D92AB39B207E1F730
:1001D00011E0A0E0B1E0E8E0F3E202C005900D928A
:1001E000A235B107D9F710E0CAEDD0E004C02197DD
:1001F000FE010E94810FC93DD107C9F70E945A082C
:100200000C9482110C94000090E0FC01E256FE4F29
:100210002491FC01E657FE4F3491FC01EA58FE4F51
:10022000E491EE23C9F0222339F0233001F1A8F440
:10023000213019F1223029F1F0E0EE0FFF1FE459CF
:10024000FE4FA591B4918FB7F894EC91611126C03F
:1002500030953E233C938FBF08952730A9F0283076
:10026000C9F0243049F7809180008F7D03C08091D0
:1002700080008F7780938000DFCF84B58F7784BD37
:10028000DBCF84B58F7DFBCF8091B0008F778093DB
:10029000B000D2CF8091B0008F7DF9CF3E2BDACF66
:1002A000CF93DF9390E0FC01E657FE4F24918A58EC
:1002B0009E4FFC0184918823D1F090E0880F991F14
:1002C000FC01EE59FE4FA591B491FC01E459FE4F9B
:1002D000C591D49161110EC09FB7F8948C91E22F13
:1002E000E0958E238C932881E223E8839FBFDF91E2
:1002F000CF9108958FB7F894EC91E22BEC938FBFD8
:10030000F6CF3FB7F8948091C9019091CA01A091AE
:10031000CB01B091CC0126B5A89B05C02F3F19F0A9
:100320000196A11DB11D3FBFBA2FA92F982F882775
:10033000BC01CD01620F711D811D911D42E0660F50
:10034000771F881F991F4A95D1F70895FC012481D2
:1003500035816217730720F480819181009729F419
:100360001092C30183EC91E00895860F971F0895C2
:10037000AF92BF92CF92DF92EF92FF920F931F93B3
:10038000CF93DF936C017B018B01040F151FEB01F1
:100390005E01AE18BF08C017D10759F06991D601A8
:1003A000ED91FC910190F081E02DC6010995892B1A
:1003B00079F7C501DF91CF911F910F91FF90EF90D9
:1003C000DF90CF90BF90AF900895FC01538D448D86
:1003D000252F30E0842F90E0821B930B541710F0F0
:1003E000CF96089501970895FC01918D828D9817FD
:1003F00061F0A28DAE0FBF2FB11D5D968C91928DD5
:100400009F5F9F73928F90E008958FEF9FEF089505
:10041000FC01918D828D981731F0828DE80FF11DCE
:10042000858D90E008958FEF9FEF0895FC01918DE9
:10043000228D892F90E0805C9F4F821B91098F73E2
:10044000992708958DEC91E00E94160221E0892BF6
:1004500009F420E0822F089580E090E0892B29F0B4
:100460000E94220281110C9400000895FC01A48DC9
:10047000A80FB92FB11DA35ABF4F2C91848D90E0C6
:1004800001968F739927848FA689B7892C93A089A9
:10049000B1898C91837080648C93938D848D981333
:1004A00006C00288F389E02D80818F7D80830895C6
:1004B000EF92FF920F931F93CF93DF93EC0181E0B4
:1004C000888F9B8D8C8D98131AC0E889F98980815B
:1004D00085FF15C09FB7F894EE89FF896083E8898E
:1004E000F98980818370806480839FBF81E090E080
:1004F000DF91CF911F910F91FF90EF900895F62E0D
:100500000B8D10E00F5F1F4F0F731127E02E8C8DA6
:100510008E110CC00FB607FCFACFE889F9898081EB
:1005200085FFF5CFCE010E943602F1CFEB8DEC0FA7
:10053000FD2FF11DE35AFF4FF0829FB7F8940B8F08
:10054000EA89FB8980818062CFCFCF93DF93EC0172
:10055000888D8823B9F0AA89BB89E889F9898C91AB
:1005600085FD03C0808186FD0DC00FB607FCF7CF67
:100570008C9185FFF2CF808185FFEDCFCE010E9467
:100580003602E9CFDF91CF91089520917901260FAE
:100590003327331F21323105ECF420919D01FC01FA
:1005A00090E080E0243069F082E00895A091790124
:1005B0002191AC01475A5E4FA40FB52FB11D2C936A
:1005C0000196861798F380917901680F60937901FD
:1005D00080E0089581E0089508958FEF9FEF0895DA
:1005E0008FEF9FEF08958091520190E09195819552
:1005F00091090895CF93DF93CB01EA01642F0E9404
:10060000C502CE01DF91CF910895CF93DF931F9262
:10061000CDB7DEB7698361E0CE0101960E94C502C5
:1006200081E090E00F90DF91CF91089590E080E01D
:100630000895CF93DF93EC0181E090E09F838E8358
:1006400060E08A810E94040161E08881DF91CF919E
:100650000C94040142E050E068E171E08DEC91E01F
:100660000C94B801CF93DF93FC0101900020E9F7CF
:100670003197AF01481B590BBC018DEC91E00E94F2
:10068000B801EC010E942A038C0F9D1FDF91CF91CE
:100690000895CF93DF93FC0144815581608171817E
:1006A0008DEC91E00E94B801EC010E942A038C0FAE
:1006B0009D1FDF91CF910895FC0124813581232B6B
:1006C00039F421E0FB018081882349F020E007C054
:1006D000808191810E94721121E0892BB9F7822FCC
:1006E00008950F931F93CF93DF93EC018881998135
:1006F000009759F02A813B812617370730F081E0B7
:10070000DF91CF911F910F9108958B016F5F7F4F04
:100710000E94AC10009759F0998388831B830A8349
:100720002C813D81232B59F7FC011082E8CF80E01A
:10073000E7CFEF92FF920F931F93CF93DF93611553
:10074000710541F480E0DF91CF911F910F91FF90EF
:10075000EF90089541155105B1F07B01EC010C813A
:100760001D81040F151FB8010E947103882351F3E6
:10077000288139818C819D81B701820F931F0E944E
:100780007B111D830C8381E0DECFCF93DF93EC01DF
:1007900088819981009711F00E9423101982188294
:1007A0001D821C821B821A82DF91CF910895EF92E5
:1007B000FF920F931F93CF93DF93EC017B018A018C
:1007C000BA010E94710381110BC0CE010E94C503C2
:1007D000CE01DF91CF911F910F91FF90EF9008957F
:1007E0001D830C83B701888199810E947B11F0CF12
:1007F000EF92FF920F931F93CF93DF93CDB7DEB7A6
:10080000A1970FB6F894DEBF0FBECDBF7C01CB0120
:10081000BA01F701118210821382128215821482AA
:100820008E010F5F1F4F22E044E00E94CC0B009727
:10083000C9F0FC0101900020E9F73197AF01481B96
:10084000590BBC01C7010E94D703A1960FB6F894BB
:10085000DEBF0FBECDBFDF91CF911F910F91FF90F3
:10086000EF900895C7010E94C503EFCFCF93DF93A8
:10087000EC01FB018617970749F0608171816115D2
:10088000710541F0448155810E94D703CE01DF916B
:10089000CF9108950E94C503F9CFCF93DF9300D085
:1008A000CDB7DEB7FC01118210821382128215824D
:1008B000148269831A82BE016F5F7F4FFB01019032
:1008C0000020E9F73197AF01461B570B0E94D70371
:1008D0000F900F90DF91CF910895FC01118210824B
:1008E0001382128215821482FB0101900020E9F725
:1008F0003197AF01461B570B0C94D703FC01808145
:100900009181009711F00C94231008951F93CF93B9
:10091000DF9385ED8093BC00809155019091560145
:10092000A0915701B09158010796A11DB11D23E078
:10093000B695A795979587952A95D1F72091BC00F4
:1009400024FD03C010929D0152C040915501509169
:1009500056016091570170915801452B462B472B4A
:1009600069F30097A105B10541F02AE22A95F1F754
:1009700000C00197A109B109E1CF80915401C1E004
:10098000C0935301882399F1D091B8001091BA0017
:100990008091BC008A7B8093BC0060E082E10E9471
:1009A000040160E083E10E94040110929D01C09364
:1009B0009F0110929E0161E082E10E94040161E0CA
:1009C00083E10E9404018091B9008E7F8093B90079
:1009D0008091B9008D7F8093B90088E48093B8003E
:1009E00085E48093BC001093BA00D093B800DF91E7
:1009F000CF911F9108951F920F920FB60F9211245D
:100A00002F933F938F939F93AF93BF938091C50193
:100A10009091C601A091C701B091C8013091C40165
:100A200023E0230F2D3758F50196A11DB11D20930A
:100A3000C4018093C5019093C601A093C701B093F0
:100A4000C8018091C9019091CA01A091CB01B091D8
:100A5000CC010196A11DB11D8093C9019093CA01DB
:100A6000A093CB01B093CC01BF91AF919F918F9197
:100A70003F912F910F900FBE0F901F90189526E871
:100A8000230F0296A11DB11DD2CF1F920F920FB658
:100A90000F9211242F933F934F935F936F937F9304
:100AA0008F939F93AF93BF93EF93FF938DEC91E060
:100AB0000E943602FF91EF91BF91AF919F918F916C
:100AC0007F916F915F914F913F912F910F900FBE4A
:100AD0000F901F9018951F920F920FB60F9211242E
:100AE0002F938F939F93EF93FF93E091DD01F0910C
:100AF000DE018081E091E301F091E40182FD1BC001
:100B000090818091E6018F5F8F732091E7018217BA
:100B100041F0E091E601F0E0E353FE4F958F8093C2
:100B2000E601FF91EF919F918F912F910F900FBE52
:100B30000F901F9018958081F4CF1F920F920FB6DF
:100B40000F9211242F933F934F935F936F937F9353
:100B50008F939F93AF93BF93EF93FF938091B900CF
:100B6000887F803609F44AC0F0F5883209F4A5C0C0
:100B700018F5803109F499C0B8F4882309F4F5C058
:100B8000883009F492C0FF91EF91BF91AF919F918E
:100B90008F917F916F915F914F913F912F910F9026
:100BA0000FBE0F901F901895883109F486C08032CF
:100BB00051F780939C0114C0803409F49BC040F429
:100BC0008033B9F38833F9F680939C0185ECAEC08D
:100BD000803509F483C0883509F494C0883499F6C7
:100BE0000E948604D0CF883909F48AC038F5883746
:100BF00029F050F4883611F0803729F683E080938D
:100C00009D0110929B0155C0883809F479C0803944
:100C100019F0803809F0B7CF80919B01803208F03D
:100C20006FC0E0919B0181E08E0F80939B018091CA
:100C3000BB00F0E0E558FE4F80833BC0803B39F0BD
:100C4000D0F4803A09F477C0883A09F09CCF84E068
:100C500080939D0110927A0110927901F0E0E0E01A
:100C600009958091790181110FC081E0809379010C
:100C70001092590109C0803C09F4A8CF883C09F4BE
:100C8000A5CF883B09F07FCFE0917A0181E08E0FFC
:100C900080937A01F0E0E75AFE4F80818093BB0099
:100CA00090917A018091790129C08091C20180934D
:100CB000BB0085EC8093BC0066CF9091C101809110
:100CC000C001981758F5E091C10181E08E0F809323
:100CD000C101F0E0E056FE4F8081E9CFE091C10113
:100CE00081E08E0F8093C1018091BB00F0E0E0565F
:100CF000FE4F80839091C1018091C0019817C8F286
:100D000085E8D8CFE091C10181E08E0F8093C101C9
:100D10008091BB00F0E0E056FE4F808380919F0100
:100D200081115ECF81E080939E0184EA8093BC00B4
:100D300010929D0128CF85EC8093BC0010929D01FC
:100D400080919B01803230F4E0919B01F0E0E55806
:100D5000FE4F108260919B0170E08BE791E0F0E024
:100D6000E0E0099510929B010ECF10929C0138CFC4
:100D7000CF93DF93EC01862F688379835B834A836B
:100D80003D832C831F821E8261E00E94500161E03E
:100D90008A810E94500160E088810E94040160E025
:100DA0008A81DF91CF910C9404016F927F928F9290
:100DB0009F92AF92BF92CF92DF92EF92FF920F93EA
:100DC0001F93CF93DF93CDB7DEB760970FB6F8943C
:100DD000DEBF0FBECDBF3C0109831A832B833C834A
:100DE0004D835E836F83788789869A86AB86BC86BF
:100DF000CD86DE86EF86F88A19A10AA130E020E0D0
:100E000050E040E070E060E00E94B806730188E0C6
:100E1000E80EF11C30E020E050E040E070E060E0DF
:100E2000C7010E94B80688E0FE013196D301019007
:100E30000D928A95E1F788E0FE013996D70101907D
:100E40000D928A95E1F780E090E0A8E4B2E4F30126
:100E5000828B938BA48BB58B108B018B61E0812FE0
:100E600060960FB6F894DEBF0FBECDBFDF91CF9175
:100E70001F910F91FF90EF90DF90CF90BF90AF90B8
:100E80009F908F907F906F900C9450018F929F92C3
:100E9000AF92BF92CF92DF92EF92FF920F931F9388
:100EA000CF93DF93CDB7DEB7A6970FB6F894DEBF2A
:100EB0000FBECDBFEDECF1E01382128288EE93E01D
:100EC000A0E0B0E084839583A683B7838AE091E0B5
:100ED0009183808385EC90E09587848784EC90E013
:100EE0009787868780EC90E0918B808B81EC90E0F7
:100EF000938B828B82EC90E0958B848B86EC90E0D8
:100F0000978B868B118E128E138E148E30E020E01C
:100F100050E040E070E060E0CE0147960E94B806E5
:100F200030E020E050E040E070E060E0CE0101966B
:100F30000E94B8061F921F928F88988CA98CBA8C39
:100F4000CB8CDC8CED8CFE8C09811A812B813C8151
:100F50004D815E816F8178858AE692E00E94D50698
:100F600030E020E050E040E070E060E0CE014796E5
:100F70000E94B80630E020E050E040E070E060E021
:100F8000CE0101960E94B8061F921F928F88988CFE
:100F9000A98CBA8CCB8CDC8CED8CFE8C09811A81EF
:100FA0002B813C814D815E816F81788580E892E064
:100FB0000E94D50622E030E044E050E065E070E0B9
:100FC000CE014F960E94B80621E030E043E050E0A9
:100FD00062E070E0CE0147960E94B8061F928AE058
:100FE0008F938F8C98A0A9A0BAA0CBA0DCA0EDA075
:100FF000FEA00F89188D298D3A8D4B8D5C8D6D8DDE
:101000007E8DCE0101960E94D50686E1FE013196C5
:10101000AAE6B2E001900D928A95E1F724E030E073
:1010200049E050E068E070E0CE014F960E94B806BB
:1010300023E030E046E050E067E070E0CE01479604
:101040000E94B8061F928BE08F938F8C98A0A9A066
:10105000BAA0CBA0DCA0EDA0FEA00F89188D298D31
:101060003A8D4B8D5C8D6D8D7E8DCE0101960E94EB
:10107000D50686E1FE013196A0E8B2E001900D921E
:101080008A95E1F70FB6F894DEBF0FBECDBFA696E6
:101090000FB6F894DEBF0FBECDBFDF91CF911F9189
:1010A0000F91FF90EF90DF90CF90BF90AF909F9007
:1010B0008F900895CF93DF93CDB7DEB764970FB6C7
:1010C000F894DEBF0FBECDBF789484B5826084BD36
:1010D00084B5816084BD85B5826085BD85B581603C
:1010E00085BD80916E00816080936E0010928100BA
:1010F0008091810082608093810080918100816075
:101100008093810080918000816080938000809135
:10111000B10084608093B1008091B00081608093C1
:10112000B00080917A00846080937A0080917A0088
:10113000826080937A0080917A00816080937A0047
:1011400080917A00806880937A001092C10060E0FC
:1011500080E00E94500161E081E00E945001E09136
:10116000DD01F091DE0182E08083E091D901F09110
:10117000DA011082E091DB01F091DC018FEC8083D9
:101180001092E501E091E101F091E20186E08083B7
:10119000E091DF01F091E001808180618083E09146
:1011A000DF01F091E001808188608083E091DF01C0
:1011B000F091E001808180688083E091DF01F0910F
:1011C000E00180818F7D808360E08DE00E9450018E
:1011D0008BE191E00E9432038E010F5F1F4F90E080
:1011E000A92E90E0B92E6AE171E0CE010F960E941F
:1011F0006D048DEC91E00E941602181619060CF091
:1012000049C08DEC91E00E94F4017C011A86198698
:101210001C861B861E861D86BE01615F7F4FCE0128
:1012200009960E9436044AE0B801C7010E94EA0B01
:10123000F80101900020E9F73197E01BF10BB9F0BC
:10124000ED84FE84EE0EFF1EB701CE0109960E94CA
:101250007103882309F4B6C029853A858D859E855A
:10126000B801820F931F0E947B11FE86ED86BE019E
:10127000675F7F4FCE010F960E943604CE0109961C
:101280000E947E04CE010F960E9449038DEC91E0EE
:101290000E94F40170E060E0CE010F960E94A6016A
:1012A000FC016081C8010E944D0461E271E0C80147
:1012B0000E945C03F82EC8010E947E0461E070E089
:1012C000CE010F96FF2009F43FC10E94A601FC0148
:1012D0006081C8010E944D0463E271E0C8010E9470
:1012E0005C03F82EC8010E947E04FF2009F46FC041
:1012F00020E030E040E251E460919202709193026C
:1013000080919402909195020E94DF0E6093920268
:1013100070939302809394029093950220E030E0C2
:1013200040E251E460917C0270917D0280917E02E6
:1013300090917F020E94DF0EAB01BC0140937C02C2
:1013400050937D0260937E0270937F02CE010996D6
:101350000E94F80365E271E0C8010E946D044D85AA
:101360005E8569857A85C8010E949903811103C051
:10137000C8010E94C503C8010E944903C8010E9418
:101380007E04CE0109960E947E04609192027091C3
:10139000930280919402909195020E944B0F2B0131
:1013A0006B01E0909002F090910261E08E2D0E941E
:1013B00050014114510409F045C060E08E2D0E9497
:1013C00004016FC0CE0109960E94C50350CF61E0B1
:1013D00070E0CE010F960E94A601FC016081C80159
:1013E0000E944D046DE271E0C8010E945C03F82E7A
:1013F000C8010E947E04FF2041F220E030E040E27C
:1014000051E46091920270919302809194029091C4
:1014100095020E94DE0E6093920270939302809375
:1014200094029093950220E030E040E251E4609114
:101430007C0270917D0280917E0290917F020E94D9
:10144000DE0E7ACFFFEF4F16510411F461E0B6CFF4
:10145000F701FF27E256FE4FE491E33009F45AC04A
:1014600050F4E130D1F0E23009F44FC020E8C21668
:10147000D10464F7A2CFE73009F456C0E83009F48C
:101480005BC0E43099F78091800080628093800097
:1014900050928B0040928A0004C084B5806884BD5D
:1014A00047BCCE010F960E947E040E9481012B0151
:1014B0003C018AE0C82ED12CE12CF12C0E94810144
:1014C0006419750986099709683E7340810591057D
:1014D000A8F3F1E0CF1AD108E108F10828EE420E96
:1014E00023E0521E611C711CC114D104E104F104FB
:1014F00029F7A114B10409F476CE0E9422028823B0
:1015000009F471CE0E9400006ECE84B5806284BD65
:1015100048BCC7CF80918000806880938000509243
:10152000890040928800BDCF8091B0008068809390
:10153000B0004092B300B5CF8091B000806280933C
:10154000B0004092B400ADCF0E94A601FC016081C2
:10155000C8010E944D0460E371E0C8010E945C0371
:10156000F82EC8010E947E048FE291E0F11030C095
:1015700061E070E0CE010F960E94A601FC0160813F
:10158000C8010E944D0467E371E0C8010E945C033A
:10159000F82EC8010E947E0482E391E0F11018C089
:1015A00061E070E0CE010F960E94A601FC0160810F
:1015B000C8010E944D046DE371E0C8010E945C0304
:1015C000F82EC8010E947E04FF2021F085E391E0FF
:1015D0000E94320370E060E0CE010F960E94A601E7
:1015E000FC016081C8010E944D0467E371E0C801FD
:1015F0000E945C03F82EC8010E947E04FF2049F07F
:101600008AE692E00E94190389E391E00E94320386
:1016100048CF70E060E0CE010F960E94A601FC0169
:101620006081C8010E944D046DE371E0C8010E9411
:101630005C03F82EC8010E947E04FF2039F082E787
:1016400092E00E9419038CE391E0E0CF70E060E04B
:10165000CE010F960E94A601FC016081C8010E9484
:101660004D0460E471E0C8010E945C03F82EC801DB
:101670000E947E04FF2039F080E892E00E94190366
:101680008FE391E0C3CF70E060E0CE010F960E943F
:10169000A601FC016081C8010E944D0463E471E071
:1016A000C8010E945C03F82EC8010E947E04FF203E
:1016B00039F088E892E00E94190382E491E0A6CF15
:1016C00070E060E0CE010F960E94A601FC016081EF
:1016D000C8010E944D0466E471E0C8010E945C03E9
:1016E000F82EC8010E947E04FF2099F08AE692E05D
:1016F0000E94190382E792E00E94190380E892E0B9
:101700000E94190388E892E00E94190385E491E0A1
:101710007DCF70E060E0CE010F960E94A601FC0133
:101720006081C8010E944D0468E471E0C8010E9414
:101730005C03F82EC8010E947E04FF2059F080E867
:1017400092E00E94190388E892E00E9419038AE45B
:1017500091E05CCF70E060E0CE010F960E94A601A0
:10176000FC016081C8010E944D046DE471E0C80174
:101770000E945C03F82EC8010E947E04FF2009F439
:1017800090CE8AE692E00E94190382E792E00E94DE
:1017900019038FE491E03ACFEF920F931F93CF9309
:1017A000DF93E80134E047FD34E1042E000C550BD3
:1017B00057FF03C0519541955109E32E022F242F65
:1017C000AE010E940F0CCE01DF91CF911F910F91BE
:1017D000EF900895BB274A3031F4992322F4BDE2FB
:1017E000909581959F4F0C94F60BBB27FB015527D5
:1017F000AA27880F991FAA1FA41710F0A41B83956E
:101800005051B9F7A05DAA3308F0A95DA1930097E4
:1018100079F7B111B1931192CB010C94460EA9E066
:10182000B0E0E5E1FCE00C94AD0E6A01F22EB02EC2
:10183000102FFBE3AF2EA01608F41BE31F5F012F50
:1018400027E0AE014F5F5F4F0E946E0DBC018981A2
:10185000982F9970913009F43FC09BE2E1FC04C0DD
:101860009E2D9170E0FC3AC05E2D5071E82FE8701B
:1018700083FF46C084E0911101C083E0EF2DE81B97
:101880008F1508F0E0E0D6018E2F20E2552351F1AC
:10189000992329F0D6019C93C60101966C0196010B
:1018A0002D5F3F4FE2FE24C08EE4D6018C9391E47D
:1018B00011969C93119712968C93D9018E2F90E2DA
:1018C00081111BC0E20FF32FF11D10828EEF9FEFED
:1018D0002996ECE00C94C90E9DE2C6CF90E2C4CFED
:1018E0002D9381508111FCCFCE0ED11CE0E0D0CFE2
:1018F0008EE6D6018C9391E6DBCF9D938150E0CFAD
:10190000482F447082FF3DC084E0911101C083E004
:101910008F1510F4EF2DE81BD6018E2F20E25523F2
:1019200009F1992329F0D6019C93C60101966C0117
:1019300096012D5F3F4FE2FE1BC089E4D6018C93D8
:101940008EE411968C93119786E412968C93D901AC
:101950008E2F90E2882309F4B5CF9D938150FACF62
:101960002D9381508111FCCFCE0ED11CE0E0D9CF58
:1019700089E6D6018C938EE611968C93119786E6B4
:10198000E4CF9B0177FF02C030E020E0A1E0B0E0AF
:10199000911102C0B0E0A0E0F9013196AE0FBF1F77
:1019A0008B2C912CBB2009F461C05401EFEFAE1ACF
:1019B000BE0AAA0DBB1DFA161B0619F014F04F2D16
:1019C0004A1B511188C0E3FC59C07601A42FB0E234
:1019D000A1114FC0C40ED11C992309F45BC040E093
:1019E000D6011196F60190836D01552309F448C084
:1019F000012F060F9A81582F507184FF03C0913335
:101A000009F4015010160CF047C0093008F008E046
:101A1000EEE2FE2E5B01A01AB1088501919481943B
:101A200091082F3F320729F4D601FC92F601319636
:101A30006F016217730794F1021713077CF5DB013E
:101A4000A21BB30BAA24A394B12CAC0EBD1EAA0DED
:101A5000BB1D11968C9121503109D6011196281584
:101A60003905F4F0F60180836D01DBCFB12CA12C98
:101A7000A0CFF701B1937F01A150AACF9111B0CFB0
:101A8000D601942F50E302C05D9391509111FCCF89
:101A9000C40ED11C40E0ACCF01E0BACF80E3DBCF75
:101AA0006217730731F4963388F4953311F4552394
:101AB00069F0F6018083FD01842F90E2811108C056
:101AC000A40FB11D1C9290E080E002CF81E3F1CF22
:101AD00091938150F3CF911183CF8ACF283008F0B2
:101AE00027E03327DA01990F311D87FD91600096B9
:101AF0006105710539F432602E5F3D9330E32A951C
:101B0000E1F708959F3F30F080387105610509F0D5
:101B10003C5F3C5F3D93913008F08068911DDF93FE
:101B2000CF931F930F93FF92EF92192F987F969563
:101B3000E92F96959695E90FFF27EE53FF4F9927CA
:101B40003327EE24FF24A701E701059008940794AA
:101B500028F4360FE71EF81E491F511D660F771F28
:101B6000881F991F0694A1F70590079428F4E70EA3
:101B7000F81E491F561FC11D770F881F991F661F2A
:101B80000694A1F70590079428F4F80E491F561FF4
:101B9000C71FD11D880F991F661F771F0694A1F7D5
:101BA0000590079420F4490F561FC71FD81F990F9F
:101BB000661F771F881F0694A9F7849110951770E8
:101BC00041F0D695C79557954795F794E7941A95A0
:101BD000C1F7E8E6F0E068941590159135916591AC
:101BE000959105907FE27395E118F10A430B560B2E
:101BF000C90BD009C0F7E10CF11E431F561FC91FC6
:101C0000D01D7EF4703311F48A95E6CFE89401502C
:101C100030F0080F0AF40027021708F4202F23954C
:101C2000022F7A3328F079E37D932A95E9F710C0E3
:101C30007D932A9589F6069497956795379517951C
:101C40001794E118F10A430B560BC90BD00998F011
:101C500023957E9173957A3308F070E37C9320137B
:101C6000B8F77E9170617D9330F0839571E37D9339
:101C700070E32A95E1F71124EF90FF900F911F91E7
:101C8000CF91DF91992787FD90950895DC01FC01A4
:101C9000672F71917723E1F7329704C07C916D93A0
:101CA00070836291AE17BF07C8F3089597F99F67D5
:101CB00080E870E060E008959FEF80EC08950024D4
:101CC0000A941616170618060906089500240A94A1
:101CD00012161306140605060895092E0394000C27
:101CE00011F4882352F0BB0F40F4BF2B11F460FFB6
:101CF00004C06F5F7F4F8F4F9F4F089557FD9058DF
:101D0000440F551F59F05F3F71F04795880F97FBBF
:101D1000991F61F09F3F79F0879508951216130679
:101D20001406551FF2CF4695F1DF08C016161706A8
:101D30001806991FF1CF86957105610508940895DD
:101D4000E894BB2766277727CB0197F908952F9250
:101D50003F924F925F926F927F928F929F92AF923B
:101D6000BF92CF92DF92EF92FF920F931F93CF9388
:101D7000DF93CDB7DEB7CA1BDB0B0FB6F894DEBF1F
:101D80000FBECDBF09942A88398848885F846E8445
:101D90007D848C849B84AA84B984C884DF80EE808F
:101DA000FD800C811B81AA81B981CE0FD11D0FB698
:101DB000F894DEBF0FBECDBFED0108955058BB278C
:101DC000AA270E94F60E0C946D0E0E945F0E38F04A
:101DD0000E94660E20F039F49F3F19F426F40C940B
:101DE0005C0E0EF4E095E7FB0C94560EE92F0E9472
:101DF0007E0E58F3BA17620773078407950720F021
:101E000079F4A6F50C94A00E0EF4E0950B2EBA2FE3
:101E1000A02D0B01B90190010C01CA01A0011124F0
:101E2000FF27591B99F0593F50F4503E68F11A169C
:101E3000F040A22F232F342F4427585FF3CF46952D
:101E400037952795A795F0405395C9F77EF41F164F
:101E5000BA0B620B730B840BBAF09150A1F0FF0F19
:101E6000BB1F661F771F881FC2F70EC0BA0F621F05
:101E7000731F841F48F4879577956795B795F795F5
:101E80009E3F08F0B0CF9395880F08F09927EE0F8A
:101E90009795879508950E94520F6894B1110C94FC
:101EA000A10E08950E94860E88F09F5798F0B92FD2
:101EB0009927B751B0F0E1F0660F771F881F991F7F
:101EC0001AF0BA95C9F714C0B13091F00E94A00E73
:101ED000B1E008950C94A00E672F782F8827B85F83
:101EE00039F0B93FCCF3869577956795B395D9F7D7
:101EF0003EF490958095709561957F4F8F4F9F4FE1
:101F00000895EE0FFF1F0590F491E02D09940F93B3
:101F10001F93CF93DF938230910510F482E090E01D
:101F2000E0919902F0919A0230E020E0B0E0A0E068
:101F3000309799F42115310509F44AC0281B390B53
:101F400024303105D8F58A819B816115710589F1AD
:101F5000FB0193838283FE0111C040815181028184
:101F6000138148175907E0F04817590799F410975B
:101F700061F012960C93129713961C933296CF0130
:101F8000DF91CF911F910F910895009399021093C3
:101F90009A02F4CF2115310551F04217530738F05A
:101FA000A901DB019A01BD01DF01F801C1CFEF01F9
:101FB000F9CF90939A0280939902CDCFFE01E20F60
:101FC000F31F819391932250310939832883D7CF0E
:101FD0002091970230919802232B41F42091020125
:101FE00030910301309398022093970220910001D1
:101FF000309101012115310541F42DB73EB74091D3
:10200000040150910501241B350BE0919702F091DA
:102010009802E217F307A0F42E1B3F0B281739078D
:1020200078F0AC014E5F5F4F2417350748F04E0F34
:102030005F1F5093980240939702819391939FCF93
:10204000F0E0E0E09CCFCF93DF930097E9F0FC0154
:10205000329713821282A0919902B0919A02ED01F7
:1020600030E020E01097A1F420813181820F931F8E
:1020700020919702309198022817390709F061C022
:10208000F0939802E0939702DF91CF910895EA01CF
:10209000CE17DF07E8F54A815B819E0141155105A6
:1020A000B1F7E901FB83EA8349915991C40FD51F28
:1020B000EC17FD0761F4808191810296840F951FD2
:1020C000E90199838883828193819B838A83F0E0ED
:1020D000E0E012968D919C9113970097B9F52D91A0
:1020E0003C911197CD010296820F931F2091970288
:1020F000309198022817390739F6309751F5109228
:102100009A0210929902B0939802A0939702BCCFC2
:10211000D383C28340815181840F951FC817D9078B
:1021200061F44E5F5F4F88819981480F591F518339
:1021300040838A819B81938382832115310509F035
:10214000B0CFF0939A02E09399029ECFFD01DC019B
:10215000C0CF13821282D7CFB0E0A0E0E2EBF0E173
:102160000C94A90E8C01009751F4CB010E94870FAB
:102170008C01C801CDB7DEB7E0E10C94C50EFC01BF
:10218000E60FF71F9C0122503109E217F30708F40C
:102190009DC0D901CD91DC911197C617D70798F052
:1021A000C530D10530F3CE0104978617970708F3A1
:1021B000C61BD70B2297C193D1936D937C93CF010C
:1021C0000E942310D6CF5B01AC1ABD0A4C018C0EC5
:1021D0009D1EA0919902B0919A02512C412CF12C94
:1021E000E12C109731F58091970290919802881513
:1021F000990509F05CC04616570608F058C0809152
:10220000000190910101009741F48DB79EB7409174
:10221000040150910501841B950BE817F90708F09C
:1022200055C0F0939802E0939702F901718360839F
:10223000A0CF8D919C91119712966C901297139646
:102240007C901397A815B90559F56C0142E0C40EAE
:10225000D11CCA14DB0420F1AC014A195B09DA0174
:102260001296159780F06282738251834083D90160
:102270006D937C93E114F10471F0D7011396FC93F4
:10228000EE93129776CF22968C0F9D1FF9019183C2
:102290008083F301EFCFF0939A02E093990269CF24
:1022A0004816590608F42C017D01D3019ACFCB01C1
:1022B0000E94870F7C01009749F0AE01B8010E948F
:1022C0006911C8010E942310870153CF10E000E07C
:1022D00050CFFB01DC0102C001900D9241505040F3
:1022E000D8F70895FB01DC018D9101908019011050
:1022F000D9F3990B0895FB01DC0101900D920020A8
:08230000E1F70895F894FFCF06
:1023080000009B028000000000005802B801E501AF
:10231800A5021602F40108020D0A005374617274D2
:102328000073002B002B537065656420002D00445A
:102338003000443100442D31006D31006D32006DA4
:1023480033006D34006D2A0072006D52006C006D10
:022358004C0037
:00000001FF
